:020000040000FA
:020000001328C3
:040002000034003492
:08000800831203138C1A09286E
:1000100009008312031386178B131A08A4008C128D
:100020008B178613090083160313FF3085000230F7
:1000300086008312031307309F0085018601831613
:100040000313263098001930990083120313981770
:1000500018168B170B17831603138C1683120313B2
:100060000508A30006174420061337202E28FA306F
:10007000A0000830A100A630A200A20B3D28A10BD1
:100080003B28A00B3928080083160313263098005C
:1000900019309900831203139817230899000C1E36
:0400A0004F280800DD
:02400E00103F61
:00000001FF
